:100000000C9446000C946E000C946E000C946E00E0
:100010000C946E000C946E000C946E000C946E00A8
:100020000C946E000C946E000C946E000C94912451
:100030000C946E000C941F250C946E000C946E00B2
:100040000C946E000C946E000C946E000C946E0078
:100050000C94F3270C946E000C9477270C946E008C
:100060000C946E000C946E000C946E000C946E0058
:100070000C94CB270C946E000C943A27AA012C0404
:10008000E9058D0D3C1106255728622811241FBE55
:10009000CFEFD0E1DEBFCDBF11E0A0E0B1E0EAE2FA
:1000A000F6E502C005900D92A031B107D9F716E030
:1000B000A0E1B1E001C01D92A137B107E1F710E066
:1000C000CCE8D0E004C02297FE010E940F2BCC3771
:1000D000D107C9F70E94D8090C94132B0C94000087
:1000E000FB01DC0102C001900D9241505040D8F755
:1000F0000895DC0101C06D9341505040E0F7089530
:10010000FC018191861721F08823D9F7992708955A
:100110003197CF010895FB01DC018D910190801989
:100120000110D9F3990B0895FB01DC0141505040B7
:1001300030F08D910190801919F40020B9F7881BD7
:10014000990B0895FB01DC014150504048F00190AB
:100150000D920020C9F701C01D9241505040E0F7B8
:100160000895FC0181E090E00190061609F4CF01AA
:100170000020D1F701970895A0E0B0E0E2ECF0E0B4
:100180000C94E02A7C01EB018A01690109C0CE01CF
:100190002196F6010995F70181937F0101501040E6
:1001A00001151105A1F7CDB7DEB7E8E00C94FC2AE4
:1001B000A0E0B0E0EEEDF0E00C94E02AEC017B0171
:1001C0008A01690109C0CE012196F70161917F0181
:1001D000F60109950150104001151105A1F7CDB7A1
:1001E000DEB7E8E00C94FC2AF8948091120290911A
:1001F00013022091100230911102281B390B7894C0
:10020000C901089580931A02089580911A020895F1
:10021000809112029091130220E0892B09F421E0D1
:10022000822F0895482F80911202909113026091BD
:1002300010027091110286179707E8F420911202BC
:10024000309113028091140290911502820F931F36
:100250000E94722AE0911602F0911702E80FF91F2E
:1002600040838091120290911302019690931302A1
:1002700080931202089581E08093180208951092ED
:100280001302109212021092180210921902109288
:100290001C0210921B020895CF93DF93EC018A8118
:1002A0009B81892B21F481E0898780E019C08C81B2
:1002B0009D8128813981B9010E94722AEE81FF81D6
:1002C000E80FF91F8C819D810196B9010E94722A65
:1002D0009D838C838A819B8101979B838A83808104
:1002E000DF91CF910895DF92EF92FF920F931F93CA
:1002F00000E112E0C8010E944C01D82EC8010E9402
:100300004C01E82EC8010E944C01F82EC8010E9441
:100310004C01982F6D2D7E2D8F2D1F910F91FF90E9
:10032000EF90DF900895FF920F931F9300E112E08A
:10033000C8010E944C01F82EC8010E944C01982F60
:100340008F2D1F910F91FF90089580E192E00E9400
:100350004C01089580E091E0909311028093100287
:1003600010921302109212021092150210921402AF
:1003700080E191E090931702809316021092180288
:10038000109219028DE192E00E94D31087E292E070
:100390000E94D31008956F927F928F929F92AF9296
:1003A000BF92CF92DF92EF92FF920F931F93DF9352
:1003B000CF93CDB7DEB768970FB6F894DEBF0FBE08
:1003C000CDBF0E94E709882309F53FC020911202A2
:1003D000309113028091140290911502820F931FA5
:1003E0000E94722AE0911602F0911702E80FF91F9D
:1003F0004083809112029091130201969093130210
:100400008093120204C01093180201C011E02091E1
:100410001202309113028091100290911102821702
:10042000930799F00E94ED09882379F00E94640AED
:10043000482F8091120290911302609110027091E6
:1004400011028617970710F2DECF80911A028823D7
:1004500009F0EDC180911B0290911C02039781F479
:100460000E94AC0C882341F087E292E00E94DA10EF
:10047000882331F00E94330D10921C0210921B024F
:1004800080911B0290911C02019741F40E94AC0CD8
:10049000882321F410921C0210921B0280911B02EF
:1004A00090911C02029751F48DE192E00E94DA10C3
:1004B000882321F010921C0210921B0280911B02D3
:1004C00090911C02049771F50E942611882351F126
:1004D0000E9423118C010E9420117C01C8010E94FE
:1004E0003429C80160E00E948229C80166E10E94A7
:1004F00082290E94711102C00E9441110E9437118D
:100500008823D1F3F70182A1882351F4C70161E068
:100510000E941529882321F010921C0210921B02C0
:100520000E94341180911B0290911C02892B09F0CA
:100530007EC18091120290911302892B09F477C138
:100540008091140290911502C0901002D090110277
:10055000E0901602F0901702B6010E94722AF7018D
:10056000E80FF91F1081113891F5809112029091D6
:100570001302419708F45BC180E192E00E944C01B4
:1005800081E090E090931C0280931B020E94730113
:100590003B014C010E9473015B016C010E947301DD
:1005A0007B018C010E947301AB01BC0169827A82DC
:1005B0008B829C82AD82BE82CF82D886E986FA8603
:1005C0000B871C87CE0101960E94B60F30C11638EA
:1005D00081F48091120290911302029708F427C1CE
:1005E00080E192E00E944C0180E192E00E944C0187
:1005F0001EC1193851F58091120290911302029791
:1006000008F415C180E192E00E944C0180E192E083
:100610000E944C01D82EDD1CDD24DD1C00E010E022
:10062000E82EFF24C701002E02C0959587950A94F5
:10063000E2F780FF04C0802F6D2D0E94010F0F5F35
:100640001F4F0330110571F7F2C0123831F5809158
:100650001202909113020D9708F4E9C080E192E034
:100660000E944C010E9473015B016C010E947301A6
:100670007B018C010E947301AD86BE86CF86D88A2D
:10068000E98AFA8A0B8B1C8B6D8B7E8B8F8B988FF4
:10069000CE010D960E94380DCAC0153801F5809123
:1006A000120290911302059708F4C1C082E090E015
:1006B00090931C0280931B0280E192E00E944C0107
:1006C0000E94730128EE33E040E050E00E94532A7C
:1006D000AB01BC018DE192E00E94FF10A8C0812F08
:1006E00083588230A0F580911202909113020897EE
:1006F00008F49DC080E192E00E944C010E94A50197
:10070000082F0E9473016B017C010E94930123E07A
:1007100030E030931C0220931B02A0E0B0E0BC014B
:10072000CD0120E432E44FE050E00E94532AAB01B7
:10073000BC0187E292E00E94FF1080E0143809F4C7
:1007400081E0602FA70196010E94120F70C0173838
:10075000D1F48091120290911302069708F467C0B9
:1007600084E090E090931C0280931B0280E192E071
:100770000E944C0180E192E00E944C010E94930192
:100780000E94930154C0183809F051C080911202A0
:1007900090911302049708F44AC08091140290913A
:1007A000150220911202309113020396B6010E94A5
:1007B000722AE80EF91EF701808190E0049628174E
:1007C0003907A8F10E942611882389F10E9423117C
:1007D0007C010E94342980E192E00E944C0180E17A
:1007E00092E00E944C01682FC7010E94822980E19B
:1007F00092E00E944C01682FC7010E9482290E944A
:10080000A501C82EDD2400E010E00AC080E192E0DE
:100810000E944C01682FC7010E9482290F5F1F4F61
:100820000C151D059CF30E9471110E9434116896ED
:100830000FB6F894DEBF0FBECDBFCF91DF911F91F1
:100840000F91FF90EF90DF90CF90BF90AF909F906F
:100850008F907F906F90089581E392E00E942C2901
:1008600008956F927F928F929F92AF92BF92CF9294
:10087000DF92EF92FF920F931F93DF93CF93CDB749
:10088000DEB764970FB6F894DEBF0FBECDBF7C0114
:100890006B01FC018081882309F4E2C03701C701A4
:1008A00060E00E941529982F8077803709F0D8C022
:1008B0009037B9F4C6010E94342901E010E00AC063
:1008C000C301602F0E941529682FC6010E9482294A
:1008D0000F5F1F4FF701808190E00817190784F31D
:1008E000C1C0913709F4BCC0923709F4B9C093373D
:1008F00009F07FC00E9423115C010E9420114C016D
:10090000C5010E94342901E010E00AC0C301602F34
:100910000E941529682FC5010E9482290F5F1F4F71
:10092000F701808190E00817190784F38E010F5FAB
:100930001F4FC8010E94D310C80140E553EC60E08E
:1009400070E00E94FF10F02E012F0FC08F2D902F0E
:100950000E94DA10882349F0C60168E00E948229CB
:1009600081EA95E062E070E026C00E9426118823AB
:1009700069F38E01055F1F4FC8010E94D310C801A3
:1009800040E553EC60E070E00E94FF100E9471119E
:100990000E943411F02E012F13C08F2D902F0E9432
:1009A000DA10882359F0C60167E00E94822981EAA3
:1009B00095E061E070E00E94702454C00E944111F3
:1009C0000E943711882349F3740100E010E00AC047
:1009D000C701602F0E941529682FC6010E94822935
:1009E0000F5F1F4FF401808190E00817190784F30F
:1009F00039C0943739F40E943F01C60161E00E947A
:100A0000822930C09637A1F4C70161E00E94152900
:100A1000182FC70162E00E941529682F112329F4BD
:100A200081EA95E070E00E947024C60161E016C082
:100A30009737B1F4C70161E00E941529182FC6014C
:100A400061E00E948229112339F481EA95E00E9435
:100A50008E24682FC60102C0C60160E00E94822970
:100A600080E001C081E064960FB6F894DEBF0FBE4F
:100A7000CDBFCF91DF911F910F91FF90EF90DF904D
:100A8000CF90BF90AF909F908F907F906F90089580
:100A90009C01F999FECF32BD21BDF89A80B5089529
:100AA0009C01F999FECF1FBA32BD21BD60BD0FB6C2
:100AB000F894FA9AF99A0FBE08951F93DF93CF9393
:100AC0000F92CDB7DEB79C01162FCE010196B9016A
:100AD00041E050E028E435E00E94BC0089818F3F6E
:100AE00009F4198389810F90CF91DF911F910895A7
:100AF000DF93CF9300D0CDB7DEB7CE01019660E093
:100B000070E042E050E028E435E00E94BC003A8109
:100B100084E6389FC00111242981820F911D893CF0
:100B2000910509F43CC032503D3F08F429C0F999C1
:100B3000FECF1FBA82E090E092BD81BD82E080BD11
:100B40000FB6F894FA9AF99A0FBEF999FECF1FBA28
:100B500083E090E092BD81BD8FE180BD0FB6F89437
:100B6000FA9AF99A0FBEF999FECF1FBA80E290E087
:100B700092BD81BD10BC0FB6F894FA9AF99A0FBED7
:100B800081E0898382E08A8380E090E0BE016F5F2C
:100B90007F4F42E050E020E535E00E94D8000F9002
:100BA0000F90CF91DF9108959C01F999FECF32BD4E
:100BB00021BDF89A80B508959C01F999FECF1FBA1E
:100BC00032BD21BD60BD0FB6F894FA9AF99A0FBEF6
:100BD000089587E592E00E94D3100895AF92BF92E6
:100BE000CF92DF92EF92FF920F931F93DF93CF93F9
:100BF000CDB7DEB72A970FB6F894DEBF0FBECDBFD4
:100C00006C018E010F5F1F4FC8010E94D310C801F5
:100C100042E350E060E070E00E94FF10F02E012FF0
:100C200011C08F2D902F0E94DA10882359F0C60131
:100C300067E00E94822981EA95E062E070E00E940C
:100C400070243DC00E942611882359F30E9423116D
:100C50008C010E9420117C01C8010E943429C80126
:100C600060E00E948229C80167E10E9482290E94F7
:100C700071110E94341102C00E9441110E9437116B
:100C80008823D1F3F70182A1843021F0570100E0DD
:100C900010E00FC0C60167E00E94822910C0C501A4
:100CA000602F0E941529682FC6010E9482290F5FBC
:100CB0001F4FF701808190E00817190784F32A96E7
:100CC0000FB6F894DEBF0FBECDBFCF91DF911F915D
:100CD0000F91FF90EF90DF90CF90BF90AF9008956D
:100CE0006F927F928F929F92AF92BF92CF92DF923C
:100CF000EF92FF920F931F93DF93CF93CDB7DEB7A1
:100D0000C554D0400FB6F894DEBF0FBECDBF7C01F6
:100D10005B01FC018081882309F4FFC17E2C6F2CCC
:100D2000C70160E00E94152987FDF7C18A3009F4E8
:100D300007C18B3098F4833099F1843030F48130DE
:100D400009F4FBC0823080F521C0873049F188303A
:100D500009F4EAC0843009F0E0C130C08E3009F4F3
:100D600073C08F3038F48C3009F475C18D3008F0C1
:100D700098C15CC1803109F47CC0803108F46DC039
:100D8000813171F0823109F0C8C19AC0C50161E0BA
:100D90000E948229C50169EC70E00E949E29BBC1B6
:100DA00081E080936102C9C0C50161E00E9482298F
:100DB0000E94F400AC0160E070E057C0F894CE01EE
:100DC0000B960E945E0DC50161E00E9482294B8551
:100DD0005C856D857E85C5010E94D4294F85588923
:100DE00069897A89C5010E94D4294B895C896D89FA
:100DF0007E89C5010E94D42953E0E52EF12CCC2434
:100E00000894E108F1088701000F111F0E0D1F1D46
:100E1000000F111F000F111F0F551A4FC8010E941C
:100E20002026882311F4DD2402C022E0D22EC8013E
:100E30000E943B26CC0CCC0CCD28C82AE114F1042E
:100E4000F9F6C5016C2D03C1C50161E00E9482293C
:100E5000C70103960E94590C30C0C50161E00E9491
:100E600082290E94010AAB01BC01C5010E94D4295C
:100E700052C1C50161E00E94822997E2C92ED12C9E
:100E8000CC0EDD1E01E010E00AC0872D962D602FEC
:100E90000E941529F60181936F010F5F1F4FF70123
:100EA000808190E00817190784F3FE01EB5BFF4F88
:100EB0001082CE0187960E94260C682FC50129C199
:100EC000C50161E00E9482298E2D9F2D61E00E9464
:100ED0001529882349F00E94980CBC01009721F045
:100EE000C5010E9482291DC08E01095D1F4FC801E6
:100EF0006FE10E942C0B682FC5010E9482298FE1AF
:100F0000E82EF12CE00EF11E08C0C5010E948229D6
:100F10000F5F1F4F0E151F0521F0F801608166233A
:100F2000A1F7C50160E0F5C00E94050191E08927A5
:100F30000E940201C5010E94EE05C50161E0E9C001
:100F4000F7018081823048F4C50160E00E94822967
:100F500081EA95E068E070E01EC08E010F5F1F4FD0
:100F6000C8010E94D310C80142E350E060E070E085
:100F70000E94FF10D02E012F11C08D2D902F0E94A6
:100F8000DA10882359F0C50167E00E94822981EABE
:100F900095E062E070E00E947024BDC00E942611BE
:100FA000882359F30E9423114C010E9420116C01E7
:100FB000C4010E94342901E010E00BC0872D962D5A
:100FC000602F0E941529682FC4010E9482290F5F9B
:100FD0001F4FF701808190E0081719077CF30E94EA
:100FE00071110E94341102C00E9441110E943711F8
:100FF0008823D1F3F60182A1843021F0760100E04C
:1010000010E00DC0C50167E084C0C701602F0E94D9
:101010001529682FC5010E9482290F5F1F4FF60115
:10102000808190E00817190784F375C0C50161E05D
:101030000E948229F8940E94AC0C882309F084C095
:101040000E940801882309F47FC061E0C5010E9465
:101050008229789460C0C70161E00E941A296C015E
:10106000C70163E00E941529E82EFF248E01095E66
:101070001F4FC801B601A70124ED35E00E94BC0056
:10108000C50161E00E948229E00EF11E06C0C50183
:10109000F80161918F010E9482290E151F05B9F791
:1010A0003AC0C70161E00E941A29C82E992EC701D3
:1010B00063E00E941529D82E8E01095E1F4FC801DA
:1010C0006C2D792D4D2D50E024ED35E00E94BC00B3
:1010D000780114E00D2D0C5F09C0872D962D612F2E
:1010E0000E941529F70181937F011F5F1017A9F74F
:1010F0008C2D992DBE01695E7F4F4D2D50E02CED5A
:1011000035E00E94D800C50161E00E948229C50136
:101110006D2D0E94822981E001C080E0CB5BDF4F12
:101120000FB6F894DEBF0FBECDBFCF91DF911F91F8
:101130000F91FF90EF90DF90CF90BF90AF909F9076
:101140008F907F906F90089560E080CFCF92DF9274
:10115000EF92FF920F931F93CF93DF93EC017B01EC
:1011600088818823A1F16E01CE0160E00E941529DB
:1011700087FF2DC00E94EA09882341F0CE010E941A
:101180006C0AC70161E00E9482291FC0F89418818F
:101190000E94F400212F30E08217930788F0C0E00E
:1011A000D0E0890107C0C6016C2F0E9415290E945A
:1011B00012012196C017D107B4F3C70161E002C044
:1011C000C70162E00E948229789481E001C080E03A
:1011D000DF91CF911F910F91FF90EF90DF90CF9013
:1011E000089580911C0690911D06892B09F476C004
:1011F00080911C0690911D06049709F075C06EC081
:101200001092610280E00E94750908958091F605B0
:101210009091F705892B01F18091F6059091F705E2
:101220000497D1F080915702882349F487E592E032
:1012300040E25EE460E070E00E94FF100DC087E5D0
:1012400092E00E94DA10882339F083ED95E00E9445
:101250007A2884E08093F5058091F505882351F084
:1012600081EA95E064E070E00E94702483ED95E0EF
:101270000E9488288091F6059091F7050497A1F5C2
:1012800087E592E00E94D71089EF95E00E9434290B
:1012900083ED95E069EF75E00E9431048823A9F49D
:1012A00083ED95E069EF75E00E94A608882369F454
:1012B00083ED95E069EF75E00E947006882329F4BC
:1012C00089EF95E065E00E94822983ED95E00E9418
:1012D000882881ED95E00E94AB27089580916102F6
:1012E000882309F493CF8CCF0895FF920F931F9317
:1012F000DF93CF93CDB7DEB72A970FB6F894DEBF52
:101300000FBECDBF182FF8940E94200A0E94330D03
:101310000E943F010E94780581EA95E00E944525E0
:1013200078941123A9F08E010F5F1F4FC8010E940E
:10133000D310C80140EA55E266E270E00E94FF1057
:10134000F02E012F8F2D902F0E94DA108823D1F3D9
:101350000E948A118823F9F485EC95E060E00E94F0
:10136000B5258E010F5F1F4FC8010E94D310C80121
:1013700040EE53E964E070E00E94FF10F02E012F70
:101380008F2D902F0E94DA108823D1F385EC95E001
:1013900061E00E94B52578942A960FB6F894DEBFD6
:1013A0000FBECDBFCF91DF911F910F91FF90089598
:1013B00081EA95E00E94B50C81E00E94750978945D
:1013C0000E9441110E94F1080E94CB01F9CF809147
:1013D0006B02089580916A020895809171020895C8
:1013E00010926B028091680290916902009721F03F
:1013F0000E94901D0E94E1201092690210926802E2
:10140000089580916A02882381F08091680290910A
:101410006902009721F00E94901D0E94E120109225
:1014200069021092680210926A020E94200A60917A
:101430006C0270916D0280916E0290916F0208951E
:1014400080916B02882311F00E94F00980916A025A
:10145000882311F00E94010A809166029091670230
:10146000009731F00E945C1610926702109266029B
:101470008091640290916502009731F00E94F6110C
:101480001092650210926402809162029091630250
:10149000009731F00E94A41E109263021092620223
:1014A0000895809168029091690260E772E041E0DE
:1014B00050E00E949D1310927102181619061CF438
:1014C00081E08093710208951F93109170020E9431
:1014D000510A812F1F910895CF93DF93EC018091E2
:1014E0006802909169020097E1F0BE016E5F7F4F44
:1014F000488150E00E94E714288180916C0290910D
:101500006D02A0916E02B0916F02820F911DA11D1C
:10151000B11D80936C0290936D02A0936E02B09304
:101520006F02DF91CF910895DF93CF93CDB7DEB7F0
:10153000AB970FB6F894DEBF0FBECDBFBC01809154
:10154000660290916702AE014F5F5F4F0E942C1DB3
:10155000811181E0AB960FB6F894DEBF0FBECDBF10
:10156000CF91DF9108950F931F93CF93DF93EC01F9
:101570008B010EC0C801BE010E948B00009741F490
:1015800080916602909167020E94621681E009C014
:101590008091660290916702B8010E9446178823E5
:1015A00049F7DF91CF911F910F9108950F931F93EA
:1015B000DF93CF93CDB7DEB7AB970FB6F894DEBF0E
:1015C0000FBECDBF8E010F5F1F4FB8010E94B30A3F
:1015D000882341F08091640290916502B8010E94D5
:1015E0006F1681E0AB960FB6F894DEBF0FBECDBF8D
:1015F000CF91DF911F910F910895EF92FF920F937A
:101600001F93DF93CF93CDB7DEB7AB970FB6F894A8
:10161000DEBF0FBECDBF7B018E010F5F1F4FB80134
:101620000E94B30A882359F0809164029091650268
:10163000B8010E94DD1DF7019183808381E0AB96A4
:101640000FB6F894DEBF0FBECDBFCF91DF911F91D3
:101650000F91FF90EF900895AF92BF92DF92EF92BB
:10166000FF920F931F93DF93CF93CDB7DEB7AB9766
:101670000FB6F894DEBF0FBECDBF7C0185E0D82E3B
:101680005E010894A11CB11C062F10E0015010400F
:101690008091660290916702B5010E9446178823E7
:1016A000D1F080E090E005C0F701E80FF91F20833A
:1016B00001968017910734F4F501E80FF91F208196
:1016C000222391F7F701E80FF91F1082892B29F4E3
:1016D000DA94F1F602C0F701108280E090E0AB9658
:1016E0000FB6F894DEBF0FBECDBFCF91DF911F9133
:1016F0000F91FF90EF90DF90BF90AF9008950F9300
:101700001F93DF93CF93CDB7DEB7AB970FB6F894A7
:10171000DEBF0FBECDBF809164029091650260E094
:1017200071E08E010F5F1F4FA8010E94131E809170
:10173000640290916502B8010E94A01D9093670217
:101740008093660220E0892B09F021E0822FAB967E
:101750000FB6F894DEBF0FBECDBFCF91DF911F91C2
:101760000F91089580916202909163020E9419196D
:10177000909365028093640220E0892B09F021E0B8
:10178000822F08950F938BEF90E269EB71E242E0B4
:1017900050E227ED32E200E00E94AC1E909363021B
:1017A00080936202892B79F48BEF90E269EB71E20E
:1017B00042E050E227ED32E20FEF0E94AC1E909320
:1017C00063028093620220E0809162029091630242
:1017D000892B09F021E0822F0F9108950E94292280
:1017E000882371F40E94881F882329F40E94200A0C
:1017F00021E030E029C00E94200A22E030E024C02D
:101800000E94C20B882329F40E94200A23E030E0C2
:101810001BC00E94B20B882329F40E94200A24E0F6
:1018200030E012C00E947F0B882329F40E94200A16
:1018300025E030E009C00E94931F882319F420E0BE
:1018400030E002C026E030E0C90108950F931F93F5
:10185000CF93DF938C010E94200A0E94EE0BEC01D3
:101860000097D9F410926C0210926D0210926E02E1
:1018700010926F021092690210926802C80168E625
:1018800072E00E94FD0A882331F0809168029091F5
:101890006902892B41F4C7E0D0E0CE01DF91CF91FE
:1018A0001F910F91089581E080936B020E94510A6D
:1018B000F4CF0F931F93CF93DF93EC010E94200A84
:1018C0000E94EE0B8C01009769F510926C02109249
:1018D0006D0210926E0210926F02109269021092C5
:1018E0006802CE010E94D60ACE010E94940A882383
:1018F00019F407E010E016C0CE0168E672E00E941D
:10190000FD0A882319F403E010E00CC080916802FE
:1019100090916902892B19F408E010E003C081E07E
:1019200080936A02C801DF91CF911F910F910895B2
:101930000E94200A0E94EE0B9C01009719F086304D
:10194000910541F480916602909167020E946216AF
:1019500020E030E0C901089580917202882311F0DF
:1019600081E008958091CC0208950F931F93DF9337
:10197000CF93CDB7DEB761970FB6F894DEBF0FBE39
:10198000CDBFBC01109272024BE752E020E030E084
:101990000BE110E01E861F86188A198A1A861B869C
:1019A0001C861D861E821F82188619861A821B823B
:1019B0001C821D82209FF001219FF00D309FF00DB1
:1019C0001124E558FD4F8981828F8A819B81AC81EA
:1019D000BD81868B978BA08FB18F8E819F81A885CB
:1019E000B985828B938BA48BB58B8A859B85AC85BF
:1019F000BD8586879787A08BB18BDA011A961D92D9
:101A00001D921D921C921D9716961D921D921D925D
:101A10001C9219978E859F85A889B98982839383A3
:101A2000A483B583C901880F991F820F931F880F64
:101A3000991F880F991F860F971FFA019183808342
:101A40002F5F3F4F455E5F4F2330310509F0A2CF36
:101A500061960FB6F894DEBF0FBECDBFCF91DF9178
:101A60001F910F910895109272021092CC02089566
:101A7000FC0180819181A281B38180937D0290934A
:101A80007E02A0937F02B093800284819581A6811B
:101A9000B7818093980290939902A0939A02B09391
:101AA0009B0280859185A285B3858093B302909334
:101AB000B402A093B502B093B6020895EF92FF92DC
:101AC0000F931F93FC0180917D0290917E02A09163
:101AD0007F02B0918002209198023091990240914A
:101AE0009A0250919B02E090B302F090B4020091F0
:101AF000B5021091B60280839183A283B3832483BD
:101B0000358346835783E086F18602871387CF01AA
:101B10001F910F91FF90EF90089510927C02109208
:101B20007B0210929702109296021092B2021092CB
:101B3000B10208958F929F92AF92BF92CF92DF929F
:101B4000EF92FF920F931F93CF93DF9380917202D6
:101B5000882309F4B1C08091770290917802A09116
:101B60007902B0917A020197A109B10980937702B5
:101B700090937802A0937902B0937A020196A11D06
:101B8000B11D0097A105B10519F41092720291C020
:101B90000BE712E0EE24FF24BBE18B2E912CA090EA
:101BA0007302B0907402C0907502D0907602E89CE7
:101BB000E001E99CD00DF89CD00D1124C558DD4FF3
:101BC0008A899B89AC89BD892E893F89488D598D29
:101BD000280F391F4A1F5B1F2A8B3B8B4C8B5D8B59
:101BE0008A899B89AC89BD89B7FD59C06A8DF80186
:101BF000808191810E94C4258A899B89AC89BD8995
:101C00008A199B09AC09BD098A8B9B8BAC8BBD8B58
:101C10008A8DF801208131818823E1F0C9010E9479
:101C20002026882331F4F8018081918161E00E94AF
:101C3000E625E89CF001E99CF00DF89CF00D1124DC
:101C4000E558FD4F82819381A481B5810196A11D44
:101C5000B11D1BC0C9010E943B26882331F4F80145
:101C60008081918161E00E94E625E89CF001E99C79
:101C7000F00DF89CF00D1124E558FD4F8281938101
:101C8000A481B5810197A109B10982839383A483BB
:101C9000B583F8018081918160E00E94E625089477
:101CA000E11CF11C055E1F4FF3E0EF16F10409F093
:101CB00076CF8091720298C08091CC02882309F47B
:101CC00093C01092CC020BE712E0AA24BB24ABE134
:101CD0008A2E912CC0907302D0907402E09075020D
:101CE000F0907602A89CE001A99CD00DB89CD00D84
:101CF0001124C558DD4F8E899F89A88DB98D009715
:101D0000A105B10509F45EC08A899B89AC89BD89AA
:101D10002E893F89488D598D280F391F4A1F5B1F17
:101D20002A8B3B8B4C8B5D8B8A899B89AC89BD89C7
:101D3000B7FD4BC06A8DF801808191810E94C42556
:101D40008A899B89AC89BD898C199D09AE09BF0917
:101D50008A8B9B8BAC8BBD8B8A8DF8012081318166
:101D6000882399F0C9010E942026882359F5F8019B
:101D70008081918161E00E94E6258A819B81AC810E
:101D8000BD810196A11DB11D12C0C9010E943B2653
:101D90008823C1F4F8018081918161E00E94E625E9
:101DA0008A819B81AC81BD810197A109B1098A8398
:101DB0009B83AC83BD83F8018081918160E00E94A8
:101DC000E62503C08091CC02811181E08093CC0292
:101DD0000894A11CB11C055E1F4FF3E0AF16B104BF
:101DE00009F078CF8091CC02DF91CF911F910F91B4
:101DF000FF90EF90DF90CF90BF90AF909F908F902B
:101E0000089590E02BE130E0829FF001839FF00D78
:101E1000929FF00D1124E558FD4F808191810E9421
:101E2000032608952F923F924F925F926F927F9276
:101E30008F929F92AF92BF92CF92DF92EF92FF92DA
:101E40000F931F93DF93CF9300D00F92CDB7DEB7E0
:101E50008983162F8FEF9FEFAFEFBFE78093770255
:101E600090937802A0937902B0937A0266E0569537
:101E70004795379527956A95D1F72093730230934C
:101E800074024093750250937602CA01B90122E0B0
:101E900030E040E050E00E94BB2A8824992454019D
:101EA000821A930AA40AB50A2BE7C22E22E0D22E88
:101EB000EE24FF249BE1292E312C012F10E081E03C
:101EC000482E512C612C712CE29CC001E39C900D9A
:101ED000F29C900D112485589D4F9B838A83FC01B1
:101EE000828A938AA48AB58AC8010E2C02C095956D
:101EF00087950A94E2F780FF0FC08981828FF601EF
:101F00008081918161E00E940326EA81FB81468AFB
:101F1000578A608E718E06C0EA81FB81168A178A05
:101F2000108E118E0894E11CF11C8BE190E0C80E1C
:101F3000D91E93E0E916F10439F681E08093CC02D2
:101F40000F900F900F90CF91DF911F910F91FF9005
:101F5000EF90DF90CF90BF90AF909F908F907F9049
:101F60006F905F904F903F902F9008953F924F92C7
:101F70005F926F927F928F929F92AF92BF92CF9219
:101F8000DF92EF92FF920F931F93DF93CF9300D0D6
:101F900000D000D0CDB7DEB749835A836B837C83F2
:101FA0003C01EBE78E2EE2E09E2EAA24BB246501C5
:101FB0001E821D827BE1472E512C33243394F30182
:101FC00080819181A281B3812D813E81249DF00188
:101FD000259DF00D349DF00D1124E558FD4F8687A9
:101FE0009787A08BB18B86859785A089B18922813F
:101FF000338144815581821B930BA40BB50B868BD7
:10200000978BA08FB18F328E86899789A08DB18DE5
:102010000097A105B10531F0F4018081918161E063
:102020000E9403262D813E81249DF001259DF00D07
:10203000349DF00D1124E558FD4F86899789A08DB8
:10204000B18DB7FF10C086899789A08DB18DB095ED
:10205000A095909581959F4FAF4FBF4F868B978BE3
:10206000A08FB18F128E8D819E81849DF001859D00
:10207000F00D949DF00D1124E558FD4FE688F7888A
:10208000008D118D029759F48091B1029091B202A6
:1020900060E0E114F1040105110551F008C0E114FC
:1020A000F1040105110531F0F4018081918161E0B5
:1020B0000E940326AE14BF04C006D10614F45701D3
:1020C00068012D813E812F5F3F4F3E832D8384E049
:1020D00090E0680E791EEBE1F0E08E0E9F1E23303B
:1020E000310509F06CCFC601B50129813A814B81D8
:1020F0005C810E94532A20E430E040E050E00E94DE
:10210000BB2AB901CA016093730270937402809371
:1021100075029093760260937702709378028093B1
:10212000790290937A0222E030E040E050E00E9491
:10213000BB2A50954095309521953F4F4F4F5F4FAB
:1021400020938D0230938E0240938F025093900221
:102150002093A8023093A9024093AA025093AB02A5
:102160002093C3023093C4024093C5025093C60229
:1021700081E08093720226960FB6F894DEBF0FBE00
:10218000CDBFCF91DF911F910F91FF90EF90DF9026
:10219000CF90BF90AF909F908F907F906F905F9007
:1021A0004F903F900895FC01108211820895FC0128
:1021B00010820895CF93DF93EC0188818823D9F0B2
:1021C00089818823C1F481EA95E00E9465242A81EF
:1021D0003B814C815D81621B730B840B950B2E81BF
:1021E0003F8148855985621773078407950718F062
:1021F000188281E089838981DF91CF910895CF9200
:10220000DF92EF92FF920F931F938C016A017B0183
:1022100081E0F8018083118281EA95E00E946524C3
:10222000F8016283738384839583C682D782E086B4
:10223000F1861F910F91FF90EF90DF90CF9008955E
:1022400081E296E0089587E496E008958091CD02BA
:10225000882341F48091CE02882321F481E0809389
:10226000CE02089580E008951092CE0208958091E4
:10227000CD0291E0892708958FEC92E00E94D3105F
:1022800008958091CD02882359F180914406909160
:102290004506049719F41092CD02089580914306E3
:1022A000882349F01092CD0281EA95E063E070E066
:1022B0000E94702408958FEC92E00E94DA10882327
:1022C00079F081E296E00E947A2884E080934306C8
:1022D0001092CD0281EA95E061E070E00E947024E6
:1022E00008950F931F9381E08093CD028FEC92E0CD
:1022F00040E553EC60E070E00E94FF1001E216E060
:10230000C8010E948828C80102970E94AB271F912C
:102310000F910895FF920F931F93DF93CF93CDB743
:10232000DEB72A970FB6F894DEBF0FBECDBF8E0181
:102330000F5F1F4FC8010E94D310C80140E553EC46
:1023400060E070E00E94FF10F02E012F06C081E0D7
:102350008093CE021092CD0213C08091CD028823CB
:1023600041F48091CE02882321F481E08093CE0253
:1023700007C08F2D902F0E94DA10882371F3E7CFCA
:1023800087E496E00E94342987E496E060E00E94AA
:10239000822987E496E061E00E9482290E947111FF
:1023A0008FEC92E040E553EC60E070E00E94FF109B
:1023B0001092CE0202C00E9441118091CD0288236A
:1023C000D1F7809144069091450620E0049709F4E6
:1023D00021E0822F2A960FB6F894DEBF0FBECDBF44
:1023E000CF91DF911F910F91FF900895FC0100970D
:1023F00011F0118210820895DF93CF9300D0CDB7F2
:10240000DEB7DC01009781F16230710568F1ED9172
:10241000FC911197660F771F80E090E016962D9142
:102420003D914D915C911997620F731F841F951F09
:102430000190F081E02DAE014F5F5F4F22E030E070
:102440000995882389F029813A812115310571F098
:102450008FEF273F380741F0C9014096079720F0DA
:102460008FEF283F380710F020E030E0C9010F90CF
:102470000F90CF91DF9108954F925F926F927F926C
:102480008F929F92AF92BF92CF92DF92EF92FF9284
:102490000F931F93DF93CF9300D0CDB7DEB75C01CE
:1024A000009709F449C06230710508F445C0DC01A9
:1024B00016966D907D908D909C9019972E010894A2
:1024C000411C511C660F771F7B0100E010E0E60CF9
:1024D000F71C081D191DD501ED91FC910190F081AB
:1024E000E02DC801B701A20122E030E00995882360
:1024F00019F1C980DA80C114D10401F1C6014096F6
:102500000897D0F0B8EFCB16BFEFDB0610F0CC2465
:10251000DD241A821982D501ED91FC910480F581A8
:10252000E02DC801B701A20122E030E00995B60113
:10253000C114D10439F602C080E001C081E00F90DF
:102540000F90CF91DF911F910F91FF90EF90DF904F
:10255000CF90BF90AF909F908F907F906F905F9043
:102560004F9008952F923F924F925F926F927F9279
:102570008F929F92AF92BF92CF92DF92EF92FF9293
:102580000F931F93DF93CF93CDB7DEB72C970FB682
:10259000F894DEBF0FBECDBF4C011B01CA018114F0
:1025A000910409F4ABC0D401ED91FC911197208105
:1025B00031813C872B87448155815A8749871696FC
:1025C0002D913D914D915C9119972D833E834F83C1
:1025D00058875A96AD90BC905B971A962D913D9175
:1025E0004D915C911D9756954795379527953C835E
:1025F0002B835B961C921E925A973C012901CC2496
:10260000DD2454C0B2E0AB16B10428F0EB81FC81AC
:10261000AE16BF0618F042E0A42EB12CC501880FFB
:10262000991F7C0100E010E02D813E814F8158858B
:10263000E20EF31E041F151FC801B701AE014F5F64
:102640005F4F22E030E0AB85BC85FD010995882312
:1026500009F454C089819A81892B11F561147104A0
:1026600021F4F401B38EA28E27C0C114D10429F441
:102670002FEF3FEF3A83298302C0DA82C982C80173
:10268000B701AE014F5F5F4F22E030E0A985BA8508
:10269000FD010995882371F10894610871086501AD
:1026A0000894410851080894A11CB11C411451041C
:1026B00009F0A8CF6728F1F4B2E02B16310400F13D
:1026C000C982DA82220C331CB10180E090E02D81B6
:1026D0003E814F815885620F731F841F951FAE0185
:1026E0004F5F5F4F22E030E0A985BA85FD01099573
:1026F000882331F4C401B6010E943C12CC24DD24AD
:10270000C6012C960FB6F894DEBF0FBECDBFCF9199
:10271000DF911F910F91FF90EF90DF90CF90BF90CE
:10272000AF909F908F907F906F905F904F903F9071
:102730002F90089580E190E008952F923F924F925C
:102740005F926F927F928F929F92AF92BF92CF9241
:10275000DF92EF92FF920F931F93DF93CF93CDB74A
:10276000DEB72A970FB6F894DEBF0FBECDBF2C019F
:102770007A8369835C834B83009709F409C1672BD3
:1027800009F406C1452B09F403C1DC019D96AD9007
:10279000BD90CD90DC90D09795962D913D914D9127
:1027A0005C919897EB81FC81CF01A0E0B0E08A0DAD
:1027B0009B1DAC1DBD1D281739074A075B0740F458
:1027C000B9016A197B097C836B83672B09F4E3C029
:1027D000D201ED91FC91119720883188D196ED912D
:1027E000FC91D297FA87E987EF2BF1F593962D911B
:1027F0003C9194973A872987232B39F4A114B1048B
:10280000C104D10409F4C7C0C3C0A114B104C104F8
:10281000D10451F18601750131018824992466277C
:102820007727CB0166197709880999096D837E831B
:102830008F83988714C0D2018D919C9169857A8588
:102840000E94FC119A878987892B09F4A1C06D81A8
:102850007E818F819885E60EF71E081F191FE614EA
:10286000F7040805190538F7089421083108A22053
:10287000B3200894211C311CCB80DC80D201ED9068
:10288000FC90E114F10409F1E985FA85E230F105E3
:10289000E0F03297BF0180E090E03296FA87E98756
:1028A000D70150962D913C91519740E050E00E9405
:1028B000532A9B01AC01F70182899389A489B589C8
:1028C000280F391F4A1F5B1F04C020E030E040E0A2
:1028D00050E081010A191B09C016D10608F48601CF
:1028E000D701ED91FC91C501A0E0B0E0280F391FA0
:1028F0004A1F5B1F0190F081E02DCA01B901498197
:102900005A8198010995882341F1C01AD10AC8015A
:10291000A0E0B0E0F20125A536A547A550A9280FF3
:10292000391F4A1F5B1FD2019D962D933D934D93F6
:102930005C93D097C8018A0D9B1D82159305A0F06A
:102940008D919C9169857A850E94FC119A8789876F
:10295000892B41F4F20112AA11AA4B815C814C1916
:102960005D091BC0AA24BB24E985FA85D201D29651
:10297000FC93EE93D197C114D10439F029813A81A7
:10298000200F311F3A83298379CF4B815C8105C0A9
:102990004FEF5FEF02C040E050E0CA012A960FB649
:1029A000F894DEBF0FBECDBFCF91DF911F910F9185
:1029B000FF90EF90DF90CF90BF90AF909F908F905F
:1029C0007F906F905F904F903F902F9008952F923F
:1029D0003F924F925F926F927F928F929F92AF92AF
:1029E000BF92CF92DF92EF92FF920F931F93DF93EC
:1029F000CF9300D000D000D0CDB7DEB76C017A8382
:102A000069835C834B83009709F43AC1672B09F40F
:102A100037C1452B09F434C1DC019D968D909D9002
:102A2000AD90BC90D09795968D919D910D90BC9155
:102A3000A02D88159905AA05BB0508F421C1D6016A
:102A4000ED91FC91119720883188D1962D913C9180
:102A5000D2973E832D83232B09F057C093968D91F7
:102A60009C9194979E838D83892BB9F48114910452
:102A7000A104B10409F004C1CF0160E070E041E0BD
:102A800050E00E94B2129E838D83D60194969C934F
:102A90008E939397892B09F4F3C0F601E5A4F6A46D
:102AA00007A510A9E114F1040105110531F52DC0A8
:102AB000E418F50806091709D6018D919C916D81DE
:102AC0007E810E94FC11009719F09E838D8318C0AF
:102AD000E114F1040105110509F0D2C0F60180816D
:102AE00091816D817E8141E050E00E94B212009799
:102AF00009F4C6C09E838D8303C021016624772418
:102B0000E414F5040605170598F608942108310821
:102B1000822093200894211C311CAB80BC80D601FC
:102B2000ED90FC90E114F10409F1ED81FE81E230B9
:102B3000F105E0F03297BF0180E090E03296FE832D
:102B4000ED83D70150962D913C91519740E050E094
:102B50000E94532A9B01AC01F70182899389A489C1
:102B6000B589280F391F4A1F5B1F04C020E030E0E1
:102B700040E050E0810108191909A016B10608F4D7
:102B80008501D701ED91FC91C401A0E0B0E0280FD0
:102B9000391F4A1F5B1F0480F581E02DCA01B9016E
:102BA00049815A8198010995882309F44DC0A01ADA
:102BB000B10AC801A0E0B0E0F60125A536A547A5F9
:102BC00050A9280F391F4A1F5B1FD6019D962D93D0
:102BD0003D934D935C93D097C801880D991D821544
:102BE000930518F18D919C916D817E810E94FC115D
:102BF000009719F09E838D8316C0A114B10459F07B
:102C0000F601808191816D817E8141E050E00E94DA
:102C1000B212009731F4D601D2961C921E92D1972F
:102C200013C09E838D83882499242D813E81F601D3
:102C300032AB21ABA114B10439F089819A81800FA4
:102C4000911F9A8389836BCFD6019D962D913D91DB
:102C50004D915C91D09795968D919D910D90BC91E1
:102C6000A02D82179307A407B50728F4F60125A322
:102C700036A347A350A74B815C814A195B0902C068
:102C80004FEF5FEFCA0126960FB6F894DEBF0FBE76
:102C9000CDBFCF91DF911F910F91FF90EF90DF900B
:102CA000CF90BF90AF909F908F907F906F905F90EC
:102CB0004F903F902F900895FC01009711F01182E2
:102CC00010820895FC01009711F480E0089583A11B
:102CD00094A196A785A710AA17A681E008957F92D0
:102CE0008F929F92AF92BF92CF92DF92EF92FF921C
:102CF0000F931F93DF93CF93CDB7DEB72C970FB60B
:102D0000F894DEBF0FBECDBF6C015B01009709F4E4
:102D10004EC06115710509F44AC0DB019796ED902C
:102D2000FD900D911C919A97E114F1040105110594
:102D3000F1F14E010894811C911C75EE772ED6019D
:102D4000ED91FC910190F081E02DC801B701A40143
:102D50002CE030E00995882351F17982D601ED917C
:102D6000FC910480F581E02DC801B701A4012CE09D
:102D700030E009958823D9F08C858F3049F480E2C2
:102D800090E0A0E0B0E0E80EF91E0A1F1B1FD7CFAD
:102D9000D50191966D917C9192976115710529F0FD
:102DA000C6010E943C12882319F081E001C080E036
:102DB0002C960FB6F894DEBF0FBECDBFCF91DF913A
:102DC0001F910F91FF90EF90DF90CF90BF90AF9049
:102DD0009F908F907F900895CF92DF92EF92FF9215
:102DE0000F931F93DF93CF93CDB7DEB760970FB6E6
:102DF000F894DEBF0FBECDBF8C016230710510F4B8
:102E000080E035C0009729F440E050E060E070E0D9
:102E100016C06250704080E090E0F801208931894E
:102E200040E050E00E94532AAB01BC01F8018289C6
:102E30009389A489B589480F591F6A1F7B1FDE013A
:102E4000119680E1FD0111928A95E9F7F8018081E0
:102E5000918120893189FC01C680D780CB01BA01DC
:102E6000AD010AE913E1EE24FF24F601099560960D
:102E70000FB6F894DEBF0FBECDBFCF91DF911F918B
:102E80000F91FF90EF90DF90CF9008952F923F9297
:102E90004F925F926F927F928F929F92AF92BF926A
:102EA000CF92DF92EF92FF920F931F93DF93CF9316
:102EB000CDB7DEB7A6970FB6F894DEBF0FBECDBF75
:102EC0002C01009709F4A5C06115710509F4A1C092
:102ED000DC018D909C901197F401208831889D969B
:102EE000AD90BC909E979F966D907C90D097FE0180
:102EF000319686E0DF011D928A95E9F7A114B104AD
:102F000009F076C0F4012288338886899789281AC7
:102F1000390A6EC0730100E010E0A114B10441F45D
:102F2000D40156966D917D918D919C9159972DC0AC
:102F30008114910421F1B2E0AB16B10400F1EEEF7F
:102F4000FFEFAE0EBF1EB50180E090E022E030E062
:102F5000A20EB31ED40150962D913C91519740E0A2
:102F600050E00E94532A9B01AC01F40182899389AD
:102F7000A489B589280F391F4A1F5B1F04C020E0B0
:102F800030E040E050E0CA01B9016E0D7F1D801FA6
:102F9000911F1C821B82D401ED91FC9181010619C5
:102FA00017090280F381E02DAE01495F5F4F20E2F7
:102FB00030E0A3E2EA2EA8E1FA2E6E010894C11CCB
:102FC000D11C0995882329F18B819C81680E791E7B
:102FD0006214730478F0C401B5010E94FC115C0115
:102FE00066247724009731F4F201A3A0B4A006C0B0
:102FF0007A8369838E81882309F48CCFD2019E96CF
:10300000BC92AE929D97D0967C926E929F978E8145
:1030100001C080E0A6960FB6F894DEBF0FBECDBF0C
:10302000CF91DF911F910F91FF90EF90DF90CF90A4
:10303000BF90AF909F908F907F906F905F904F90D8
:103040003F902F900895CF92DF92EF92FF920F93CF
:103050001F93CF93DF938C016A017B01A901D901F2
:10306000CD91DC91119712968D919C91139780963A
:1030700013969C938E931297F8019081953E11F0D0
:10308000992321F4DA0114961C92C9C0F8018385B2
:103090008F30E1F5D90114969C91992319F085851B
:1030A000981771F08BE2FE0111928A95E9F7D80129
:1030B0001D968C91FA018483CFA2D8A6E9A6FAA620
:1030C000D8018C9190E08F7390702DE030E0829F5A
:1030D000A001839F500D929F500D11244D505040E0
:1030E000A2E0B1E0C40FD51F0DC08D91F801E80F2B
:1030F000F11D808189934F5F5F4FE1E0AF30BE07E4
:1031000009F48DC04F31510580F389C0888188232F
:10311000D1F0D90114966C91F801A1E0892F90E0CB
:103120009C01359527959695982F88279795879593
:10313000982F922B8181980FAF5F3196AB3071F74A
:10314000691709F457C08BE2FE0111928A95E9F7DD
:10315000CFA2D8A6E9A6FAA6B801DE01780120E040
:10316000F70190819032A1F09C93F801848583FF50
:1031700008C0F7018081813420F08B3510F4905E17
:103180009C932F5F0894E11CF11C1196283041F7A5
:103190008881853011F485EE8883D80118968C914A
:1031A000803221F1FE01E20FF11D8EE28083322F89
:1031B0003F5F2C5FFB0190859032B9F0FE01E30F79
:1031C000F11D9083D8011C968C9184FF09C0DB010E
:1031D00018968C91813420F08B3510F4905E90839A
:1031E0003F5F6F5F7F4F321729F7232FFE01E20FFA
:1031F000F11D1082F801838588A3828D938D9AA397
:1032000089A3848D958DA68DB78D8BA39CA3ADA32B
:10321000BEA381E0DA0115968C9380E001C081E0C5
:10322000DF91CF911F910F91FF90EF90DF90CF90A2
:1032300008952F923F924F925F926F927F928F925A
:103240009F92AF92BF92CF92DF92EF92FF920F9335
:103250001F93DF93CF93CDB7DEB7A8970FB6F8943F
:10326000DEBF0FBECDBF98A78FA3009709F45CC146
:10327000DC0114968D919C911597892B09F454C10A
:1032800016968D919C911797892B09F44DC168C1B1
:10329000EEE6F3E08CE1DF011D928A95E9F7EFA1FC
:1032A000F8A5F0936F03E0936E0321843284438486
:1032B0005484A9E0220C331C441C551CAA95D1F758
:1032C000C201B101655F7F4F8F4F9F4F0190F08129
:1032D000E02DAE014F5F5F4F29E130E00995882373
:1032E00009F445C1E981FA81FBA3EAA32C813D8160
:1032F000FB81FCA34E818F8198859EA38DA3E985D8
:10330000FA856C857D856E887F88888C998C6114A0
:1033100071048104910431F4309709F428C13F010C
:10332000882499246115710509F421C1C901A0E01F
:10333000B0E08A8F9B8FAC8FBD8F80E090E0242F10
:1033400030E040E050E00E94532A6E8F7F8F88A3C8
:1033500099A3840173012A8D3B8D4C8D5D8DE21AFA
:10336000F30A040B150BE61AF70A080B190B8AA1CE
:103370009BA101972DA13EA1F5E0220F331FFA95E5
:10338000E1F7820F931F6AA17BA10E94722A80E05D
:1033900090E0E61AF70A080B190B8CA1282F30E0F1
:1033A00040E050E0C801B7010E94992A79018A01E2
:1033B00095EFE9169FE0F90690E0090790E01907FC
:1033C00008F4D5C0A5EFEA16AFEFFA06A0E00A07A9
:1033D000A0E01A0728F486E0EFA1F8A5808705C0D1
:1033E0008BE0AFA1B8A518968C9388E1E0E7F3E0F5
:1033F000DF011D928A95E9F7EAA1FBA15F01CC24C8
:10340000DD24C401B301A60195010E94532A6093F3
:103410007003709371038093720390937303C601DA
:10342000B5012A8D3B8D4C8D5D8D0E94532A260E51
:10343000371E481E591E2092740330927503409225
:10344000760350927703AFA1B8A518968C91863079
:1034500029F064E070E080E090E004C062E070E099
:1034600080E090E022E030E040E050E0E20EF31E29
:10347000041F151FA80197010E94532A6093780327
:103480007093790380937A0390937B034AA15BA1A5
:1034900050937D0340937C035CA1852F90E0DC0179
:1034A000EAA1FBA1AE9FC001AF9F900DBE9F900D02
:1034B000112490937F0380937E036E8D7F8D88A16E
:1034C00099A1A60195010E94532A2091740330917D
:1034D00075034091760350917703620F731F841F29
:1034E000951F609384037093850380938603909364
:1034F0008703ADA1BEA19D0140E050E0E5E0220FB1
:10350000331F441F551FEA95D1F7620F731F841FA5
:10351000951F60938003709381038093820390933F
:1035200083032EE633E002C020E030E0C901A89614
:103530000FB6F894DEBF0FBECDBFCF91DF911F91C4
:103540000F91FF90EF90DF90CF90BF90AF909F9042
:103550008F907F906F905F904F903F902F90089545
:1035600080916E0390916F03892BF1F691CE1092AA
:103570006F0310926E03D8CF2F923F924F925F92BB
:103580006F927F928F929F92AF92BF92CF92DF9273
:10359000EF92FF920F931F93DF93CF9300D00F9280
:1035A000CDB7DEB71C019B01009709F4D2C04115CD
:1035B000510509F4CEC0FA0101900020E9F7E41B9F
:1035C000F50BCF010B966DE070E00E94722A862FFA
:1035D0008F5F8B83D90193964D905C9094974114A3
:1035E000510451F0AA24BB246501EE24FF24870175
:1035F0006624772443010BC0F101E688F788008D2B
:10360000118D6288738884889588570168011A82B1
:10361000E614F7040805190509F06EC041145104B9
:1036200009F497C0E114F1040105110589F1C10104
:10363000B2010E94FC11009751F5C101B20141E0B5
:1036400050E00E94B2128C01009709F482C002502F
:103650001040B80180E090E00E5F1F4FD1015096FE
:103660002D913C91519740E050E00E94532A5B011C
:103670006C01F10182899389A489B589A80EB91ECC
:10368000CA1EDB1EC101B8010E94EC1665C02C01E8
:10369000F2E04F16510420F4EE24FF2487011DC0F0
:1036A0002EEF3FEF420E531EB20180E090E0A2E009
:1036B000B0E04A0E5B1EF1012089318940E050E004
:1036C0000E94532A7B018C01F10182899389A4898C
:1036D000B589E80EF91E0A1F1B1FD10150968D9166
:1036E0009C9151973C01882499246E0C7F1C801E6C
:1036F000911E570168011A82D101ED91FC91019050
:10370000F081E02DC801B701AE014F5F5F4F21E0AE
:1037100030E009958823E9F08981853E11F08823FE
:1037200079F4BA81BF5FBA83EB81BE17A8F480E257
:1037300090E0A0E0B0E0E80EF91E0A1F1B1F68CF62
:1037400080E290E0A0E0B0E0E80EF91E0A1F1B1F27
:103750005CCFAA24BB246501B501C6010F900F9070
:103760000F90CF91DF911F910F91FF90EF90DF901D
:10377000CF90BF90AF909F908F907F906F905F9011
:103780004F903F902F9008953F924F925F926F928B
:103790007F928F929F92AF92BF92CF92DF92EF92E1
:1037A000FF920F931F93DF93CF93CDB7DEB7A09710
:1037B0000FB6F894DEBF0FBECDBFFC018B010097A2
:1037C00009F431C16115710509F42DC10190F08131
:1037D000E02D44805580DB019796AD90BD90CD9053
:1037E000DC909A97E62E912EFB0101900020E9F7DC
:1037F0003197FE2EF61A8F2D90E00C966DE070E05A
:103800000E94862A762ECE01019660E270E04BE09F
:1038100050E00E947900C8016EE270E00E94B100A1
:10382000FC010097E1F09C012F5F3F4F81818823CD
:10383000B1F0D9010D900020E9F71197A21BB30B4D
:103840008A2F8095F80EBE01675F7F4F4A2FA43004
:1038500008F043E0CB01B90150E00E947000CE01B6
:103860000196B8E0BF1588F06E2D792D4F2D50E0F0
:103870000E947000F80180818E3291F581818E3234
:1038800009F48281882359F12BC0DC018E2D992DFA
:103890009C01F90188E001900D928150E1F7D80177
:1038A00091962C91822F90E0203A40F4B4E09595C7
:1038B0008795BA95E1F7982F905D07C0A4E095959C
:1038C0008795AA95E1F7982F9F59822F8F708A309C
:1038D00010F4805D01C08F599F83888701C07724D1
:1038E0008981853E11F485E08983FCE08F2E912C3F
:1038F0008C0E9D1E85E1F40111928A95E9F7D8019D
:1039000090968C9190978C8791968D919C9192979F
:103910009C8F8B8F93968D919D910D90BC91A02D36
:103920008D8F9E8FAF8FB8A3672D70E0E5E0660F97
:10393000771FEA95E1F780E090E06A0D7B1D8C1D12
:103940009D1DAE014F5F5F4F20E230E0F20109950F
:10395000882309F468C0E980FE013296A4018E2D07
:1039600090E09C01359527959695982F88279795F7
:103970008795E82EE22A8191E80EE417F50779F79A
:10398000F72C4E010894811C911C8DE0382EBFE06D
:103990006B2E44C0C4016FEF70E040E250E00E9423
:1039A0007900F39CD00111241D97A00FB11F91E065
:1039B000F401E90FF11D8C918083892F8F5FF40151
:1039C000E80FF11D10829E5F9B3019F09A3121F4AF
:1039D00002C09EE001C09CE18C91882321F09F31C0
:1039E00010F41196E5CFF982F71419F48F2D806445
:1039F00089836C86EE861D861B8E1C8EC601B501E2
:103A0000A40120E230E0F201099580E290E0A0E01C
:103A1000B0E0A80EB91ECA1EDB1EFA94FF2009F002
:103A2000B9CF81E001C080E0A0960FB6F894DEBF68
:103A30000FBECDBFCF91DF911F910F91FF90EF90FF
:103A4000DF90CF90BF90AF909F908F907F906F90BE
:103A50005F904F903F900895AF92BF92CF92DF92C8
:103A6000EF92FF920F931F93CF93DF938C017B0113
:103A7000EA01009709F448C06115710509F444C0D2
:103A8000FB018081882309F43FC041155105E1F114
:103A9000B42EAD2EC801BE010E944617882379F0CE
:103AA000C7016B2D7A2D0E948B00009799F7F801C2
:103AB00083A194A196A785A710AA17A625C0F801EF
:103AC000C080D1808BE2FE0111928A95E9F78B2D9F
:103AD0009A2DB7014FE150E00E94A200C601B80143
:103AE000AE010E94BC1A6FA378A789A79AA7611597
:103AF00071058105910541F0C601BE010E94C41BFC
:103B0000882319F081E001C080E0DF91CF911F91FF
:103B10000F91FF90EF90DF90CF90BF90AF900895FE
:103B2000CF93DF93EC01009741F0FC0181919191DB
:103B3000BF010E94C41B19821882DF91CF910895A2
:103B4000CF93DF93AC01DB01009789F1611571051B
:103B500071F190968C91909784FF29C08091D90241
:103B60009091DA02892B19F4E9EDF2E008C0809116
:103B70000A0390910B03892BD1F4EAE0F3E09F0153
:103B80002E5F3F4FBD018BE2EB010990BE01E901C1
:103B900009929E018150C1F75183408391968D9186
:103BA0009C91929796A785A710AA17A602C0E0E05D
:103BB000F0E0CF01DF91CF910895CF93DF939C0187
:103BC000FB01009731F06115710519F080A184FFA8
:103BD00023C020E030E0C901DF91CF910895CDE30B
:103BE000D3E0DF018BE20D9009928150E1F7309331
:103BF0003C0320933B0310926803109269031092D8
:103C00006A0310926B0381A192A190936D0380933C
:103C10006C032BE333E0DFCF80913B0390913C03B7
:103C2000892BB9F6DCCF6F927F928F929F92AF92E1
:103C3000BF92CF92DF92EF92FF920F931F93CF9399
:103C4000DF934C01EB017A01009709F467C061151D
:103C5000710509F463C08881882309F45FC04115A8
:103C6000510509F45BC08F3209F421968BE2F7010C
:103C700011928A95E9F780E1F70180A3370101C02D
:103C8000E5018881882309F44BC0C401B7010E9473
:103C9000A01D6C01009709F441C0CE016FE270E0F5
:103CA0000E948000009739F0482F4C1B5C0108945B
:103CB000A11CB11C2AC0FE0101900020E9F7319738
:103CC0004E2F4C1B5E01A40EB11C1FC0F3010190CE
:103CD0000020E9F73197E619F709E017F107B9F481
:103CE000CE01B301A8010E949400009781F4F6016F
:103CF000118210820C0F1D1FF8018081882381F032
:103D0000F70180A184FDBCCF09C0042F10E0C601DB
:103D1000B7010E9446178823C9F612C080E001C08F
:103D200081E0DF91CF911F910F91FF90EF90DF9095
:103D3000CF90BF90AF909F908F907F906F9008959D
:103D4000F601118210829DCFFC01009711F480E0F2
:103D50000895108681E008958F929F92AF92BF924E
:103D6000CF92DF92EF92FF920F93DF93CF93CDB775
:103D7000DEB760970FB6F894DEBF0FBECDBF7C01F3
:103D80006B015A014901009709F493C0611571054F
:103D900009F48FC004300CF08CC007FD1DC0602FEB
:103DA000772767FD7095E4E0660F771FEA95E1F7E6
:103DB00062547E4F882777FD8095982FAE014F5F24
:103DC0005F4F20E130E0F7010995882309F471C0C5
:103DD0008D81882309F46DC080919203882309F0B6
:103DE00068C07CC08D81809392032A8530E040E0DA
:103DF00050E0542F432F322F22278B8590E0A0E0F4
:103E0000B0E0DC0199278827282B392B4A2B5B2B24
:103E1000898590E0A0E0B0E0282B392B4A2B5B2B62
:103E20008C8590E0A0E0B0E0B82FAA2799278827DA
:103E3000282B392B4A2B5B2B20939303309394032D
:103E400040939503509396032E8530E040E050E078
:103E5000542F432F322F22278F8590E0A0E0B0E02F
:103E6000DC0199278827282B392B4A2B5B2B8D8542
:103E700090E0A0E0B0E0282B392B4A2B5B2B8889FF
:103E800090E0A0E0B0E0B82FAA2799278827282B38
:103E9000392B4A2B5B2B2093970330939803409345
:103EA000990350939A0303C08FEF809392039F016D
:103EB00002C020E030E0C90160960FB6F894DEBF82
:103EC0000FBECDBFCF91DF910F91FF90EF90DF90AC
:103ED000CF90BF90AF909F908F900895EAE8F3E065
:103EE00081E1DF011D928A95E9F7F0928B03E09260
:103EF0008A03D0928D03C0928C03B0928F03A0925C
:103F00008E03909291038092900307FF6BCFCCCFEA
:103F1000E0916E06EF70F0E080A18695869586951B
:103F2000809581700895E0916E06EF70F0E080A1B9
:103F300090E0959587959595879581700895282FA0
:103F40008FEF8EBD0DB407FEFDCF8DB58F778DBD84
:103F50008EB5822F80648EBD0DB407FEFDCF8DB56A
:103F60008F778DBD872F9927AA27BB278EBD0DB4CC
:103F700007FEFDCF8DB58F778DBDCB01AA27BB275F
:103F80008EBD0DB407FEFDCF8DB58F778DBDBB27E0
:103F9000A72F962F852F8EBD0DB407FEFDCF8DB5B3
:103FA0008F778DBD4EBD0DB407FEFDCF8DB58F77DC
:103FB0008DBD222319F0283069F406C085E98EBD35
:103FC0000DB407FEFDCF0BC087E88EBD0DB407FE14
:103FD000FDCF05C08FEF8EBD0DB407FEFDCF8DB5B3
:103FE0008F778DBD90E02FEF2EBD0DB407FEFDCF76
:103FF0008DB58F778DBD8EB58F3F19F49F5F9A3049
:1040000099F708952F923F924F925F926F927F920D
:104010008F929F92AF92BF92CF92DF92EF92FF92D8
:104020000F931F93CF93DF934B015C012A0139015A
:10403000E0916E06EF70F0E080A182FFA3C0ABC0FC
:10404000E401D170CE01A0E0B0E085017401E81A6E
:10405000F90A0A0B1B0BC12CB2E0DB2ECC1ADD0ACD
:104060006C147D0408F4630180919C0390919D037E
:10407000A0919E03B0919F03E816F9060A071B075B
:10408000F9F00E94E120882309F485C0209729F4E3
:1040900080E0C81682E0D80658F4C801B70140EAAB
:1040A00053E020E032E00E94FB20882309F473C033
:1040B000E0929C03F0929D0300939E0310939F0354
:1040C00080EA481683E0580671F09E0120563C4F66
:1040D000C901B201A6010E94700010929B036C14EA
:1040E0007D0409F45AC02C9888E1B801A7010E9408
:1040F0009F1F882311F02C9A4EC08EEF8EBD0DB4F9
:1041000007FEFDCF8DB58F778DBDE0EAF3E081919D
:104110008EBD0DB407FEFDCF8DB58F778DBD85E0CB
:10412000E03AF807A1F73EBC0DB407FEFDCF8DB510
:104130008F778DBD3EBC0DB407FEFDCF8DB58F775B
:104140008DBD3EBC0DB407FEFDCF8DB58F778DBD07
:104150008EB58F3FB1F78EBD0DB407FEFDCF8DB587
:104160008F778DBD8EB52C9A4C0C5D1CC601A0E0DE
:10417000B0E0880E991EAA1EBB1E6C187D08209206
:104180009B0304C033243A942224239461147104C1
:1041900009F056CF02C080E001C081E0DF91CF91ED
:1041A0001F910F91FF90EF90DF90CF90BF90AF9055
:1041B0009F908F907F906F905F904F903F902F9047
:1041C000089580919B03882311F081E00895609108
:1041D0009C0370919D0380919E0390919F0340EA00
:1041E00053E020E032E00E940220882319F081E0B1
:1041F00080939B0308953F924F925F926F927F92BC
:104200008F929F92AF92BF92CF92DF92EF92FF92E6
:104210000F931F93CF93DF933B014C016A01290158
:1042200033243A948FC01FEFA12E11E0B12EA620A7
:10423000B720C501A0E0B0E084017301E81AF90AD3
:104240000A0B1B0BC0E0D2E0CA19DB094C165D0655
:1042500008F4E20180919C0390919D03A0919E033C
:10426000B0919F03E816F9060A071B0709F457C027
:104270000E94E120882309F46AC02C9881E1B801EA
:10428000A7010E949F1F882319F02C9A80E05FC02D
:104290003EBC0DB407FEFDCF8DB58F778DBD8EB5BD
:1042A0008E3FB1F7E0EAF3E03EBC0DB407FEFDCF70
:1042B0008DB58F778DBD8EB5808385E0EF39F8079A
:1042C00011F03196F1CFE0929C03F0929D030093A0
:1042D0009E0310939F03950120563C4FC601B901E0
:1042E000AE010E9470003EBC0DB407FEFDCF8DB53F
:1042F0008F778DBD8EB53EBC0DB407FEFDCF8DB55D
:104300008F778DBD8EB52C9A3EBC0DB407FEFDCFC8
:10431000CC0EDD1E8DB58F778DBD8EB50AC0950193
:1043200020563C4FC601B901AE010E947000CC0E70
:10433000DD1E4C1A5D0ACE01A0E0B0E0680E791EC9
:104340008A1E9B1E4114510409F06DCF81E0DF915C
:10435000CF911F910F91FF90EF90DF90CF90BF9082
:10436000AF909F908F907F906F905F904F903F9015
:1043700008952F923F924F925F926F927F928F9209
:104380009F92AF92BF92CF92DF92EF92FF920F93E4
:104390001F93DF93CF9300D000D0CDB7DEB74B0192
:1043A0005C013A013C832B832701DA82C9824115E3
:1043B0005105A9F12115310591F10217130778F183
:1043C000E114F10461F1190130942194310833941E
:1043D000021B130B6901EE24FF24C501B401A301E4
:1043E0002B813C810E94FB208823C9F0C301B501C9
:1043F000A40129813A81F2010995882391F0020DE7
:10440000131D8B819C81800F911F2B813C81821712
:10441000930738F08C0C9D1CAE1CBF1CDECF80E0D7
:1044200001C081E00F900F900F900F90CF91DF911E
:104430001F910F91FF90EF90DF90CF90BF90AF90C2
:104440009F908F907F906F905F904F903F902F90B4
:1044500008950F931F93CF93DF93E0916E06EF7053
:10446000F0E081A1877F81A3E0916E06EF70F0E01C
:1044700081A18B7F81A3259A279A249A26982C9A2A
:1044800083E58CBD8DB58E7F8DBD1092A005E0912A
:104490006E06EF70F0E080A183FD1FC090E02FEF6B
:1044A0002EBD0DB407FEFDCF8DB58F778DBD8EB5BA
:1044B0009F5F9A30A9F72C98C0E0D0E080E040E000
:1044C00050E060E070E00E949F1F182F813049F09B
:1044D00081E0CF3FD80719F42C9A80E063C0219681
:1044E000EDCF87E340E050E060E070E00E949F1F66
:1044F00089E240E050E060E070E00E949F1F82FD92
:1045000002C01093A0058091A005082F10E0037051
:104510001070C0E0D0E00115110549F087E340E0DC
:1045200050E060E070E00E949F1F89E201C081E0DE
:1045300040E050E060E070E00E949F1F80FF06C0F6
:104540008FE7CF3FD80741F22196E5CF80E140E0E9
:1045500052E060E070E00E949F1F882309F0BCCF0A
:104560002C9A8CB58C7F8CBD8DB581608DBD8FEF05
:104570009FEFAFEFBFEF80939C0390939D03A093B9
:104580009E03B0939F0381E080939B0360E070E003
:1045900080E090E040EA53E020E032E00E94FB201F
:1045A000811181E0DF91CF911F910F9108954F927A
:1045B0005F926F927F928F929F92AF92BF92CF92B3
:1045C000DF92EF92FF920F931F93CF93DF935B01E4
:1045D0006C014A01E901380127014115510571F1CA
:1045E0000115110559F1FF242115310511F5FF249D
:1045F000F3941FC0C401B601A5019201F30109950E
:104600008C010097E9F0FF2019F4C817D907B0F022
:10461000C601B501A40198010E940220882371F00F
:10462000C801A0E0B0E0A80EB91ECA1EDB1EC01B68
:10463000D10BFF20F9F62097E9F602C080E001C017
:1046400081E0DF91CF911F910F91FF90EF90DF906C
:10465000CF90BF90AF909F908F907F906F905F9022
:104660004F900895DC0120E030E0FD01E20FF31FE0
:104670008081807F80838181807F81838281807F30
:1046800082838381807F83838481807F848385810B
:10469000807F85838681807F86838781807F8783F3
:1046A0008085807F80878185807F8187245F3F4FE1
:1046B00024323105D1F690916F069F7020917006DB
:1046C0002F701B961C921B9731E01A963C931A97F9
:1046D00018968C911897807F892B18968C93189731
:1046E00019968C911997807F846019968C931997ED
:1046F00016968C911697807F892B16968C93169719
:1047000017968C911797807F856017968C931797D3
:1047100014968C911497807F892B14968C93149700
:1047200015968C911597807F836015968C931597BD
:1047300012968C911297807F822B12968C931297EF
:1047400013968C911397807F876013968C931397A1
:104750008C91807F892B8C9311968C911197807FFF
:10476000826011968C93119720916F062F70909113
:104770006D069F7057961C92579756963C93569786
:1047800054968C915497807F892B54968C93549790
:1047900055968C915597807F866055968C9355974A
:1047A00052968C915297807F892B52968C93529778
:1047B00053968C915397807F856053968C93539733
:1047C00050968C915097807F892B50968C93509760
:1047D00051968C915197807F876051968C93519719
:1047E0001E968C911E97807F822B1E968C931E970F
:1047F0001F968C911F97807F87601F968C931F97C1
:104800001C968C911C97807F822B1C968C931C97F6
:104810001D968C911D97807F86601D968C931D97A9
:1048200093961C92939792963C93929790968C9124
:104830009097807F892B90968C93909791968C91EE
:104840009197807F816091968C9391975E968C91E1
:104850005E97807F892B5E968C935E975F968C9196
:104860005F97807F5F968C935F975C968C915C9747
:10487000807F892B5C968C935C975D968C915D977D
:10488000807F82605D968C935D975A968C915A9743
:10489000807F892B5A968C935A975B968C915B9765
:1048A000807F84605B968C935B9758968C91589729
:1048B000807F892B58968C93589759968C9159974D
:1048C000807F836059968C930895FC018FB7F8948C
:1048D00025A136A147A150A58FBFB901CA010895EE
:1048E0006115710561F41092CC051092CB05E09131
:1048F0006E06EF70F0E082A18E7F82A30CC08091E3
:10490000CA0590E08617970731F082E090E0909317
:10491000CC058093CB056093CA0508958091CA05A4
:1049200008951F920F920FB60F9211242F933F9369
:104930008F939F93EF93FF938091CD059091CE0538
:104940001816190614F4019738C08091CB05909180
:10495000CC0581309105E1F48091CF059091D0058F
:1049600001969093D0058093CF0582E090E09093DC
:10497000CC058093CB0582E190E09093CE058093A7
:10498000CD05E0916E06EF70F0E082A18E7F32C01F
:1049900082309105B9F48091CA0590E02091CF054D
:1049A0003091D005281739079CF083E090E0909370
:1049B000CC058093CB0580E590E09093CE05809365
:1049C000CD0519C00397B9F41092D0051092CF0508
:1049D00081E090E09093CC058093CB0582E190E05C
:1049E0009093CE058093CD05E0916E06EF70F0E0D8
:1049F00082A1816082A3FF91EF919F918F913F915E
:104A00002F910F900FBE0F901F90189581EA95E09F
:104A10000E9432230895FC0185A196A1A7A1B0A50B
:104A2000805C9F4FAF4FBF4F85A396A3A7A3B0A7AE
:104A30000E940501882311F40E949A0D08951F9287
:104A40000F920FB60F9211242F933F934F935F93C2
:104A50006F937F938F939F93AF93BF93EF93FF9346
:104A600081EA95E00E940B25FF91EF91BF91AF91F4
:104A70009F918F917F916F915F914F913F912F9176
:104A80000F900FBE0F901F901895EF92FF920F930B
:104A90001F937C011092CC051092CB05E0916E061D
:104AA000EF70F0E082A18E7F82A31092CA05870189
:104AB0000C5D1F4FC8010E94A625C80161E00E943D
:104AC000B525C70160E00E945626C7010C9661E03B
:104AD0000E945626C701489662E00E94562601EDC4
:104AE00015E0C80161E00E941927C80102960E94E2
:104AF00088288FE196E061E00E94192781E296E024
:104B00000E9488281092800089E080938100109292
:104B1000820080E094E0909389008093880082E096
:104B200080936F001092B00087E08093B10081E025
:104B300080937000E0916E06EF70F0E081A18160DB
:104B400081A31F910F91FF90EF900895E09170065F
:104B5000EF70F0E081A1806481A3E0917006EF70B6
:104B6000F0E082A18F7B82A30895809170068F7000
:104B7000E82FF0E092A1662311F480E401C080E008
:104B80009F7B892B82A30895FC018385882311F0E4
:104B900081E0682780818F70A82FB0E092964C91B9
:104BA000929781818F7021E030E002C0220F331F85
:104BB0008A95E2F7922F662311F0822F01C080E0E0
:104BC00090959423892B92968C930895FC01828171
:104BD0008F70A82FB0E092964C91929783818F703E
:104BE00021E030E002C0220F331F8A95E2F7922FB6
:104BF000662311F0822F01C080E090959423892BC9
:104C000092968C930895FC0184818F70A82FB0E058
:104C100092964C91929785818F7021E030E002C08E
:104C2000220F331F8A95E2F7922F662311F4822F09
:104C300001C080E090959423892B92968C930895DF
:104C4000DC011696EC911697EF70F0E080A190E0F1
:104C500017962C9117972F7002C0959587952A95D6
:104C6000E2F7982F91701A968C91882311F081E0C9
:104C70009827892F0895DC011896EC911897EF700A
:104C8000F0E080A190E019962C9119972F7002C046
:104C9000959587952A95E2F7982F91701A968C91A1
:104CA000882311F081E09827892F08950F931F938F
:104CB000CF93DF93EC01062FE881EF70F0E031A194
:104CC00089818F7041E050E0BA0102C0660F771F02
:104CD0008A95E2F7262F20952323262B21A3EA810C
:104CE000EF70F0E031A18B818F70BA0102C0660FC6
:104CF000771F8A95E2F7262F20952323262B21A3C1
:104D0000EC81EF70F0E032A18D818F70BA0102C0AA
:104D1000660F771F8A95E2F7262F20952323262BEF
:104D200022A3EC81EF70F0E031A18D818F70BA0188
:104D300002C0660F771F8A95E2F7262F209523235E
:104D4000262B21A3EE81EF70F0E021A18F818F70DF
:104D5000BA0102C0660F771F8A95E2F7CB018095F2
:104D6000822381A3E885EF70F0E091A189858F709F
:104D700002C0440F551F8A95E2F74095492341A38D
:104D800082E090E062E00E945D05182F83E090E0F1
:104D900060E00E945D0587FD02C041E009C090E02F
:104DA000002E02C0959587950A94E2F7482F41702E
:104DB0004A87812F90E002C0959587950A95E2F782
:104DC000817090708B878E818F70E82FF0E052A1F8
:104DD0008F818F7021E030E002C0220F331F8A954F
:104DE000E2F7922F442311F0822F01C080E09095CA
:104DF0009523892B82A388858F70E82FF0E092A1FC
:104E000089858F7021E030E002C0220F331F8A9520
:104E1000E2F7422F8A85882311F0822F01C080E0BB
:104E200040954923842B82A3DF91CF911F910F914D
:104E30000895FC016183E081EE2361F4662321F093
:104E40008091C100806C03C08091C1008F738093FA
:104E5000C1000895E13069F4662331F08091C90002
:104E6000806C8093C90008958091C9008F738093EE
:104E7000C90008951F920F920FB60F9211242F931D
:104E80003F934F935F936F937F938F939F93AF93D2
:104E9000BF93EF93FF9380916A0690916B06892BE5
:104EA00069F080916A0690916B06049739F087E467
:104EB00096E00E943C298093CE0008C08BB18F7C85
:104EC0008BB98091C90080618093C900FF91EF91F7
:104ED000BF91AF919F918F917F916F915F914F9112
:104EE0003F912F910F900FBE0F901F9018951F921A
:104EF0000F920FB60F9211242F933F934F935F930E
:104F00006F937F938F939F93AF93BF93EF93FF9391
:104F100080911C0690911D06892B61F080911C06E2
:104F200090911D06049731F089EF95E00E943C298D
:104F30008093C600FF91EF91BF91AF919F918F91A8
:104F40007F916F915F914F913F912F910F900FBE85
:104F50000F901F901895CF93DF93EC0189818823E0
:104F6000B9F0CE0188960E943C29982F8881882329
:104F700019F49093C6000CC0813051F48BB180635A
:104F80008BB98091C9008F7E8093C9009093CE0029
:104F9000DF91CF9108951F920F920FB60F921124B7
:104FA0002F933F934F935F936F937F938F939F9331
:104FB000AF93BF93EF93FF936091CE0081E296E0B1
:104FC0000E948F28FF91EF91BF91AF919F918F9198
:104FD0007F916F915F914F913F912F910F900FBEF5
:104FE0000F901F9018951F920F920FB60F921124D9
:104FF0002F933F934F935F936F937F938F939F93E1
:10500000AF93BF93EF93FF936091C60083ED95E05C
:105010000E948F28FF91EF91BF91AF919F918F9147
:105020007F916F915F914F913F912F910F900FBEA4
:105030000F901F9018950F931F938C01FC016083B4
:10504000118202960E948128C80188960E942C290C
:10505000F8010081002371F41092C50089E180936A
:10506000C4001092C00088E18093C10086E0809364
:10507000C2001AC00130C1F41092CD0089E18093C2
:10508000CC001092C80088E18093C90086E080932C
:10509000CA008AB180638AB98BB18F7C8BB9809149
:1050A000C90080618093C9001F910F91089581ED1F
:1050B00095E060E00E941B288FE196E061E00E948D
:1050C0001B28089580916D06807F80936D068091E6
:1050D0006E06807F836080936E0680916F06807F6E
:1050E000866080936F0680917006807F89608093D0
:1050F00070060895FC011182108212A214A213A25C
:105100000895FC011182108212A214A213A2089524
:10511000FC011182108212A214A213A20895DC01D4
:1051200093968D919C919497892B91F4653D19F4F8
:1051300081E090E066C011961C9211971C929296A5
:105140001C92929794961C921E92939781E020C095
:1051500093968D919C9194970197E9F4603260F455
:1051600095966C93959795968C919597882309F4CD
:1051700038C082E090E045C011961C9211971C92B5
:1051800092961C92929794961C921E92939782E00C
:1051900092968C93089593968D919C9194970297F3
:1051A00019F58C918032B8F411968C91119786275D
:1051B00028E09CE880FB86950EF489272A95D1F794
:1051C00011968C9311978C91FD01E80FF11D62836C
:1051D0008C918F5F8C939C9195968C919597981755
:1051E00018F183E090E00DC093968D919C91949777
:1051F0000397D1F411968C911197861739F484E0B6
:1052000090E094969C938E939397089511961C9298
:1052100011971C9292961C92929794961C921E92B1
:10522000939783E092968C930895FC01E60FF11D0D
:1052300082810895E62FF0E0DC01AE0FBF1F1296C9
:105240002C913196E80FF91F4281942F80E030E0D5
:10525000282B392BC9010895FC011182108212A25A
:1052600014A213A215A20895FC011182108212A2A9
:1052700014A213A215A20895DC0193968D919C911E
:105280009497892B41F481E090E094969C938E93BF
:10529000939725ED35C093968D919C9194970197A6
:1052A00039F42C918C918823B9F082E090E024C0ED
:1052B00093968D919C919497029789F495968C91F1
:1052C0009597FD01E80FF11D22818F5F95968C93D4
:1052D00095979C918917A0F083E090E00DC093967C
:1052E0008D919C919497039711F020E009C011963D
:1052F0002C91119784E090E094969C938E939397D1
:10530000822F0895DC018C918032B8F411968C9133
:105310001197862728E09CE880FB86950EF4892764
:105320002A95D1F711968C9311978C91FD01E80F76
:10533000F11D62838C918F5F8C930895DC018C91B9
:105340008032B8F411968C911197862728E09CE85A
:1053500080FB86950EF489272A95D1F711968C93B8
:1053600011978C91FD01E80FF11D62838C918F5F85
:105370008C938C918032B8F411968C911197872779
:1053800028E09CE880FB86950EF489272A95D1F7C2
:1053900011968C9311978C91FD01E80FF11D72838A
:1053A0008C918F5F8C930895EF92FF920F931F93D0
:1053B000DC017A018B018C918032B8F411968C91CA
:1053C0001197842728E09CE880FB86950EF48927B6
:1053D0002A95D1F711968C9311978C91FD01E80FC6
:1053E000F11D42838C918F5F8C938C918032D8F425
:1053F0005527412F302F2F2D11968C9111978227F1
:1054000038E09CE880FB86950EF489273A95D1F721
:1054100011968C9311978C91FD01E80FF11D228359
:105420008C918F5F8C938C918032D0F498014427BB
:10543000552711968C911197822738E09CE880FBC4
:1054400086950EF489273A95D1F711968C9311978A
:105450008C91FD01E80FF11D22838C918F5F8C935D
:105460008C918032D8F4212F332744275527119669
:105470008C911197822738E09CE880FB86950EF48A
:1054800089273A95D1F711968C9311978C91FD014C
:10549000E80FF11D22838C918F5F8C931F910F91E8
:1054A000FF90EF900895629FD001739FF001829F5B
:1054B000E00DF11D649FE00DF11D929FF00D839FA3
:1054C000F00D749FF00D659FF00D9927729FB00D40
:1054D000E11DF91F639FB00DE11DF91FBD01CF0153
:1054E00011240895AA1BBB1B51E107C0AA1FBB1FB3
:1054F000A617B70710F0A61BB70B881F991F5A9560
:10550000A9F780959095BC01CD01089597FB092ED0
:1055100007260AD077FD04D0E5DF06D000201AF474
:10552000709561957F4F0895F6F7909581959F4FFF
:105530000895A1E21A2EAA1BBB1BFD010DC0AA1FD4
:10554000BB1FEE1FFF1FA217B307E407F50720F0EC
:10555000A21BB30BE40BF50B661F771F881F991F67
:105560001A9469F760957095809590959B01AC01B0
:10557000BD01CF01089597FB092E05260ED057FDDA
:1055800004D0D7DF0AD0001C38F4509540953095F0
:1055900021953F4F4F4F5F4F0895F6F790958095B7
:1055A000709561957F4F8F4F9F4F08952F923F9237
:1055B0004F925F926F927F928F929F92AF92BF9223
:1055C000CF92DF92EF92FF920F931F93CF93DF93CF
:1055D000CDB7DEB7CA1BDB0B0FB6F894DEBF0FBE2C
:1055E000CDBF09942A88398848885F846E847D8479
:1055F0008C849B84AA84B984C884DF80EE80FD807B
:105600000C811B81AA81B981CE0FD11D0FB6F894F0
:10561000DEBF0FBECDBFED010895EE0FFF1F059059
:0A562000F491E02D0994F894FFCFF7
:10562A002F0001030507090E10121416181C1E007C
:00000001FF
